:100000000200553200000000000000320000000035
:10001000000000320000000000000032000000007C
:100020000000003200000000000000000000C39546
:10003000F02212002E60044002E422740122C0E08B
:1000400074201470FDD0E0002278107903D8FED916
:10005000FCD5E0F522787FE4F6D8FD758125752082
:1000600000C2B0C2B1C294C293C2B2C2B3C2B4C2DF
:10007000B5D2B7C296D205D297C290C291C292743D
:1000800064114931A9113E11D4A205920450030212
:1000900000AFA2B7920450030200AFD296740A11C7
:1000A000493162113E311B740A1149C297D205A22F
:1000B00005920440030200CDA2B79204400302005F
:1000C000CDC29611D4113E31A9D297C20502008942
:1000D000C2AF80FE90020D858223858324752201A4
:1000E00075F013E522113270030201188523828511
:1000F00024837821E493A3858223858324F6E52154
:10010000B40102800302010D31F002010F31FC0540
:1001100022E52260030200E0510322900240858222
:100120002385832475220175F016E52211327003B0
:1001300002015F8523828524837821E493A385824D
:1001400023858324F6E521B40102800302015431A2
:10015000F002015631FC0522E5226003020127511D
:10016000032290022085822385832475220175F065
:1001700010E522113270030201A6852382852483B3
:100180007821E493A3858223858324F6E521B401B5
:1001900002800302019B31F002019D31FC0522E542
:1001A00022600302016E5103229002308582238572
:1001B000832475220175F010E522113270030201CB
:1001C000ED8523828524837821E493A3858223858A
:1001D0008324F6E521B4010280030201E231F0023A
:1001E00001E431FC0522E52260030201B55103223E
:1001F000D29100D29200C29200C29122D29200C249
:1002000092002200D29000C29000C2912200000011
:1002100000000100000000000000000000010000DC
:1002200001000100010100000101010101000100C4
:1002300001000100010100000101000101000100B5
:1002400000010101010000000001000000010000A8
:10025000010000010101000000000000000000009A
:00000001FF
